:020000040000FA
:06000000A0EF05F0120064
:020006001200E6
:06000800D7EF03F0120027
:02000E000100EF
:0C0010005C0B00006000000029000000F4
:04001C00020EE66E7C
:1000200080EC05F0E5521200D9CFE6FFE1CFD9FF11
:10003000F00E8C16FE0EDB508009E8380F0B0F0B0C
:100040008C12839CEBDF838EE9DF839EF00E8C168F
:10005000FE0EDB500F0B8C12E1DF838EDFDF839E01
:10006000E552E7CFD9FF1200D9CFE6FFE1CFD9FFA4
:10007000F00E8C16FE0EDB380F0B0F0B8C12839CD0
:10008000CDDF838ECBDF839EF00E8C16FE0EDB5011
:100090000F0B8C12C3DF838EC1DF839EE552E7CF47
:1000A000D9FF1200D9CFE6FFE1CFD9FFF00E8C16B1
:1000B000FE0EDB380F0B0F0B8C12838CAFDF838EA1
:1000C000ADDF839EF00E8C16FE0EDB500F0B8C12F4
:1000D000A5DF838EA3DF839EE552E7CFD9FF120011
:1000E000D9CFE6FFE1CFD9FFFD0EDBCFF6FFFE0E45
:1000F000DBCFF7FF0800F55012E090DFFD0EDBCFFD
:10010000F6FFFE0EDBCFF7FF0800F550E66ECADF04
:10011000E552FD0EDB2AFE0E01E3DB2AE5D700D017
:10012000E552E7CFD9FF1200D9CFE6FFE1CFD9FFE3
:10013000FD0EDBCF10F0FE0EDBCF11F00A0E0D6EC0
:100140000E6A10C008F011C009F044EC05F008C0B8
:1001500010F009C011F0300E1024E66EA3DFE55256
:10016000FD0EDBCF10F0FE0EDBCF11F00A0E0D6E90
:100170000E6A10C008F011C009F044EC05F004C08C
:1001800010F005C011F0300E1024E66E8BDFE55242
:10019000E552E7CFD9FF1200809A050EE66E80EC9B
:1001A00005F0E552808A050EE66E80EC05F0E5521A
:1001B0001200D9CFE6FFE1CFD9FF010EE66E54DF82
:1001C000E552800EE66E30DFE552E66A6BDFE552FF
:1001D000FD0EDBCFF6FFFE0EDBCFF7FF2B0EF62674
:1001E0000A0EF7220800F550E66E5CDFE552FD0EC0
:1001F000DBCFF6FFFE0EDBCFF7FF2B0EF6260A0E47
:10020000F7220800F550E66E4DDFE552010EE66E6E
:1002100049DFE552C00EE66E07DFE552E66A42DFCF
:10022000E552FD0EDBCFF6FFFE0EDBCFF7FF390EFA
:10023000F6260A0EF7220800F550E66E33DFE55287
:10024000FD0EDBCFF6FFFE0EDBCFF7FF390EF626F5
:100250000A0EF7220800F550E66E24DFE552020E82
:10026000E66E20DFE552E552E7CFD9FF1200010E1E
:100270000001806F816B7AC0F6FF7BC0F7FFD890DA
:10028000F636F736470EF6260A0EF7220900F5CFA6
:1002900074F00A00F5CF75F0010EE66EE5DEE5526A
:1002A000800EE66EC1DEE552230EE66E0A0EE66EA5
:1002B00017DFE552E55260C0E6FF61C0E6FF10DFE0
:1002C000E552E552C00EE66EAFDEE552170EE66E61
:1002D0000A0EE66E05DFE552E552470EF66E0A0E8F
:1002E000F76E0900F5CFE6FF0800F5CFE6FF1CDF4B
:1002F000E552E552140EE66E0A0EE66EF1DEE552A8
:10030000E55212000001806B816B010EE66EACDEDF
:10031000E552800EE66E88DEE5520A0EE66E0A0EA3
:10032000E66EDEDEE552E552809C81B602D034DF17
:10033000FCD7010E0001786F796B37EF01F00001F7
:10034000806B816B010E781901E1795101E096D043
:10035000010E726F736B786B796B808CE66E84DE46
:10036000E552800EE66E60DEE552FE0EE66E090E88
:10037000E66EB6DEE552E55200017E6B7F6B7F5183
:100380008519E8AE02D0853504D084517E5D855153
:100390007F5906E201DF00017E2B000E7F23EFD79D
:1003A000010E861901E187513BE18088010EE66E5E
:1003B0005BDEE552800EE66E37DEE552F30EE66E4A
:1003C000090EE66E8DDEE552E55200017E6B7F6B15
:1003D0007AC0F6FF7BC0F7FFD890F636F736470EA7
:1003E000F6260A0EF7220900F5CF10F00800F5CF27
:1003F00011F010507E5D11507F590AE2FA0EE66E40
:1004000080EC05F0E55200017E2B000E7F23E0D743
:100410008098000EE66EE66ACCDEE552E5520FD01B
:10042000010EE66E21DEE552800EE66EFDDDE55240
:10043000E70EE66E090EE66E53DEE552E552000168
:100440007E6B7F6B7F518319E8AE02D0833504D079
:1004500082517E5D83517F590DE29EDE0001725113
:10046000731104E182C07EF083C07FF07E2B000E0A
:100470007F23E8D78651871101E144DF1200000194
:10048000806B816B81B4FED7010EE66EEDDDE55227
:10049000800EE66EC9DDE552D60EE66E090EE66EFA
:1004A0001FDEE552E552C00EE66EBEDDE552CA0E15
:1004B000E66E090EE66E14DEE552E55281A4FED723
:1004C0009FEF01F07E6A7F6A926A896A0F0E936ECF
:1004D000E00E8A6E946A8B6A956A8C6AF19E7C80C3
:1004E0009380F19CF292F288D08EF28CF28E020E02
:1004F000E66EBADDE552010EE66EB6DDE552280E77
:10050000E66EB2DDE5520F0EE66EAEDDE552010E8F
:10051000E66EAADDE552E66A87DDE552E66AC2DDEF
:10052000E552010EE66EBEDDE552020EE66EBADD64
:10053000E552030EE66EB6DDE552040EE66EB2DD60
:10054000E552050EE66EAEDDE552060EE66EAADD5C
:10055000E552070EE66EA6DDE552400EE66E84DD3E
:10056000E5520B0EE66E80DDE552010EE66E9ADD79
:10057000E552010EE66E96DDE552010EE66E92DD65
:10058000E552010EE66E8EDDE552010EE66E8ADD65
:10059000E552010EE66E86DDE552010EE66E82DD65
:1005A000E552010EE66E7EDDE552100EE66E7ADD56
:1005B000E552100EE66E76DDE552100EE66E72DD47
:1005C000E552100EE66E6EDDE5521E0EE66E6ADD39
:1005D000E552120EE66E66DDE552120EE66E62DD43
:1005E000E552120EE66E5EDDE552120EE66E5ADD43
:1005F000E552120EE66E56DDE552120EE66E52DD43
:10060000E5521E0EE66E4EDDE552100EE66E4ADD38
:10061000E552100EE66E46DDE552100EE66E42DD46
:10062000E552100EE66E3EDDE552E66A3BDDE55230
:10063000E66A38DDE552E66A35DDE552E66A32DD26
:10064000E552E66A2FDDE552E66A2CDDE5521F0E23
:10065000E66E28DDE5521F0EE66E24DDE552E66A01
:1006600021DDE552E66A1EDDE552E66A1BDDE55254
:10067000E66A18DDE552E66A15DDE5521F0EE66E04
:1006800011DDE5521F0EE66E0DDDE5521F0EE66E22
:1006900009DDE552E66A06DDE552E66A03DDE5526C
:1006A000E66A00DDE552E66AFDDCE5521F0EE66E05
:1006B000F9DCE5521F0EE66EF5DCE5521F0EE66E24
:1006C000F1DCE5521F0EE66EEDDCE552E66AEADC8F
:1006D000E552E66AE7DCE552E66AE4DCE5521F0E25
:1006E000E66EE0DCE5521F0EE66EDCDCE5521F0E26
:1006F000E66ED8DCE5521F0EE66ED4DCE5521F0E26
:10070000E66ED0DCE552E66ACDDCE552E66ACADC8C
:10071000E552E66AC7DCE5521F0EE66EC3DCE55221
:100720001F0EE66EBFDCE5521F0EE66EBBDCE55227
:100730001F0EE66EB7DCE5521F0EE66EB3DCE55227
:100740000C0EE66E91DCE552010EE66E8DDCE55294
:10075000010EE66E89DCE552800EE66E65DCE55240
:10076000BF0EE66E090EE66EBBDCE552E552CADD51
:1007700000017851791101E1FBD77851791101E13C
:10078000FCD781B47CDE0001010E701901E17151CA
:100790000CE1010E781901E1795107E1010E866F34
:1007A000876BCDDD0001866B876BE7D71200DACF50
:1007B000E4FFE2CFDAFFE9CFE4FFEACFE4FFF6CFD0
:1007C000E4FFF7CFE4FFF5CFE4FFF3CFE4FFF4CF8E
:1007D000E4FFFACFE4FF00EE00F0100EE80403E3BC
:1007E000EECFE4FFFBD700EE10F0020EE80403E3C7
:1007F000EECFE4FFFBD7E6520F0E00017DAF02D033
:10080000D89003D07C5D000E7D590DE2010E861953
:1008100001E1875107E17CC0E6FF7DC0E6FFC9DC4E
:10082000E552E55253D07D3504E27C511208000EAA
:100830007D550BE27CC07AF07DC07BF0010E801903
:1008400001E1815101E113DD41D00F0E7C1901E17D
:100850007D5128E0120E7C1901E17D511FE0110E3F
:100860007C1901E17D5108E0100E7C1901E17D51F8
:1008700001E02CD047DD2AD0010EE66E34EC00F00A
:10088000E552800EE66E14EC00F0E552B40EE66E12
:10089000090EE66E25DCE552E55218D0010E706FA8
:1008A000716B14D0726B736B010EE66E34EC00F05A
:1008B000E552800EE66E14EC00F0E552B40EE66EE2
:1008C000090EE66E0DDCE552E55200D0F292E552DB
:1008D00000EE11F0020EE80403E3E5CFEDFFFBD7D5
:1008E00000EE0FF0100EE80403E3E5CFEDFFFBD7B9
:1008F000E5CFFAFFE5CFF4FFE5CFF3FFE5CFF5FF56
:10090000E5CFF7FFE5CFF6FFE5CFEAFFE5CFE9FF5B
:06091000E5CFDAFF110043
:0A0916000E0EF66E000EF76E000ED6
:10092000F86E00010900F550A06F0900F550A16FA5
:1009300003E1A06701D03DD00900F5509B6F09008D
:10094000F5509C6F0900F5509D6F09000900F550A6
:10095000E96E0900F550EA6E090009000900F5503A
:100960009E6F0900F5509F6F09000900F6CFA2F0B5
:10097000F7CFA3F0F8CFA4F09BC0F6FF9CC0F7FF21
:100980009DC0F8FF00019E5302E19F5307E009005C
:10099000F550EE6E9E07F8E29F07F9D7A2C0F6FF6A
:1009A000A3C0F7FFA4C0F8FF0001A007000EA15BE1
:0409B000BFD712009B
:0C09B40052656D6F766520637570004C15
:1009C0006F6164696E672E2E2E00707265737320DE
:1009D000436C65616E00496E7365727420612074AA
:1009E00061626C65742C00436C65616E696E672E84
:1009F0002E2E0042726577696E672E2E2E00506C87
:100A000065617365207761697400526573657474FC
:100A1000696E6700207300427265772074696D65A6
:0B0A20003A2000557365723A20000078
:050A2B00202020202026
:100A300020205F0304050607FF5F0304050607FF88
:100A4000FFFFFFFFFFFFFF0A0014001E0028003217
:100A5000003C00460050004564646965004C756BBD
:100A6000650059757672616A005A616E646572003C
:100A700044617272656E004F7A00476C796E6E0049
:080A8000477565737420310015
:080A8800006A0EAE4DEF05F00F
:100A90000D6C0E1EE86A0E22001E09AE55EF05F021
:100AA000086C091EE86A0922001E6AEC05F009BEFE
:100AB00065EF05F000AE000C086C091EE86A09221B
:100AC000046C051EE86A0522000C00BE5CEF05F010
:040AD0000188FF0C8E
:0C0AD400056A046A100EE76ED890083620
:100AE0000936043605360D50045C0E50055805E3F2
:100AF0000D50045E0E50055A082AE72EF0D712005A
:100B0000FF0EE350126E480E01D04C0EE76EE72E3A
:100B1000FED7E76AE72EFED7122EF7D700001200A5
:100B2000000EF36E00EE00F0060E01D81200EA602F
:100B300002D0EE6AFCD7F350E9601200EE6AFCD7EF
:100B400014EE00F024EE00F0F86A019C8BEC04F047
:0C0B500003EC00F062EC02F0FBD7120096
:040B5C00570A5D0ACD
:100B6000620A690A700A770A7A0A800A000000009D
:100B700000000000000000000000000000009600DF
:050B8000640000002AE2
:020000040030CA
:0100010008F6
:0100020001FC
:010003001EDE
:010005008B6F
:010006008178
:010008000FE8
:01000900C036
:01000A000FE6
:01000B00E014
:01000C000FE4
:01000D0040B2
:00000001FF
