:020000040000FA
:06000000C7EF05F012003D
:020006001200E6
:06000800F0EF03F012000E
:02000E000100EF
:0C001000AA0B00006000000028000000A7
:04001C00020EE66E7C
:10002000A7EC05F0E5521200D9CFE6FFE1CFD9FFEA
:10003000F00E8C16FE0EDB508009E8380F0B0F0B0C
:100040008C12839CEBDF838EE9DF839EF00E8C168F
:10005000FE0EDB500F0B8C12E1DF838EDFDF839E01
:10006000E552E7CFD9FF1200D9CFE6FFE1CFD9FFA4
:10007000F00E8C16FE0EDB380F0B0F0B8C12839CD0
:10008000CDDF838ECBDF839EF00E8C16FE0EDB5011
:100090000F0B8C12C3DF838EC1DF839EE552E7CF47
:1000A000D9FF1200D9CFE6FFE1CFD9FFF00E8C16B1
:1000B000FE0EDB380F0B0F0B8C12838CAFDF838EA1
:1000C000ADDF839EF00E8C16FE0EDB500F0B8C12F4
:1000D000A5DF838EA3DF839EE552E7CFD9FF120011
:1000E000D9CFE6FFE1CFD9FFFD0EDBCFF6FFFE0E45
:1000F000DBCFF7FF0800F55012E090DFFD0EDBCFFD
:10010000F6FFFE0EDBCFF7FF0800F550E66ECADF04
:10011000E552FD0EDB2AFE0E01E3DB2AE5D700D017
:10012000E552E7CFD9FF1200D9CFE6FFE1CFD9FFE3
:10013000FD0EDBCF12F0FE0EDBCF13F00A0E0D6EBC
:100140000E6A12C008F013C009F06BEC05F008C08D
:1001500012F009C013F0300E1224E66EA3DFE55250
:10016000FD0EDBCF12F0FE0EDBCF13F00A0E0D6E8C
:100170000E6A12C008F013C009F06BEC05F004C061
:1001800012F005C013F0300E1224E66E8BDFE5523C
:10019000E552E7CFD9FF1200809A050EE66EA7EC74
:1001A00005F0E552808A050EE66EA7EC05F0E552F3
:1001B0001200D9CFE6FFE1CFD9FF010EE66E54DF82
:1001C000E552800EE66E30DFE552E66A6BDFE552FF
:1001D000FD0EDBCFF6FFFE0EDBCFF7FF770EF62628
:1001E0000A0EF7220800F550E66E5CDFE552FD0EC0
:1001F000DBCFF6FFFE0EDBCFF7FF770EF6260A0EFB
:10020000F7220800F550E66E4DDFE552010EE66E6E
:1002100049DFE552C00EE66E07DFE552E66A42DFCF
:10022000E552FD0EDBCFF6FFFE0EDBCFF7FF860EAD
:10023000F6260A0EF7220800F550E66E33DFE55287
:10024000FD0EDBCFF6FFFE0EDBCFF7FF860EF626A8
:100250000A0EF7220800F550E66E24DFE552020E82
:10026000E66E20DFE55200D0E552E7CFD9FF12005D
:10027000010E00017F6F806B7AC0F6FF7BC0F7FF35
:10028000D890F636F736950EF6260A0EF7220900B4
:10029000F5CF74F00A00F5CF75F0010EE66EE4DEDE
:1002A000E552800EE66EC0DEE5526F0EE66E0A0E77
:1002B000E66E16DFE552E5527AC0E9FF7BC0EAFF41
:1002C000D890E936EA36600EE926000EEA22EECF33
:1002D000E6FFEFCFE6FF04DFE552E552C00EE66E23
:1002E000A3DEE552630EE66E0A0EE66EF9DEE55217
:1002F000E5527AC0F6FF7BC0F7FFD890F636F736A6
:10030000950EF6260A0EF7220900F5CFE6FF080043
:10031000F5CFE6FF09DFE552E552600EE66E0A0E04
:10032000E66EDEDEE552E55200D0120000017F6B82
:10033000806B010EE66E98DEE552800EE66E74DE8E
:10034000E552560EE66E0A0EE66ECADEE552E5523C
:10035000809C81B602D020DFFCD7010E0001786FAF
:10036000796B856B866B84DF00D0120000017F6B98
:10037000806B010E781901E1795101E096D0010EF0
:10038000726F736B786B796B808CE66E6DDEE55205
:10039000800EE66E49DEE5524A0EE66E0A0EE66E05
:1003A0009FDEE552E55200017D6B7E6B7E51841924
:1003B000E8AE02D0843504D083517D5D84517E59EE
:1003C00006E2EADE00017D2B000E7E23EFD7010E50
:1003D000851901E186513BE18088010EE66E44DE1D
:1003E000E552800EE66E20DEE5523F0EE66E0A0E06
:1003F000E66E76DEE552E55200017D6B7E6B7AC0DB
:10040000F6FF7BC0F7FFD890F636F736950EF62646
:100410000A0EF7220900F5CF12F00800F5CF13F00D
:1004200012507D5D13507E590AE2FA0EE66EA7EC7B
:1004300005F0E55200017D2B000E7E23E0D7809869
:10044000000EE66EE66AB5DEE552E5520FD0010E0B
:10045000E66E0ADEE552800EE66EE6DDE552330E0C
:10046000E66E0A0EE66E3CDEE552E55200017D6B5B
:100470007E6B7E518219E8AE02D0823504D0815164
:100480007D5D82517E590DE287DE0001725173114C
:1004900004E181C07DF082C07EF07D2B000E7E23C2
:1004A000E8D78551861101E141DF00D0120000013B
:1004B0007F6B806B81B4FED7010EE66ED5DDE55211
:1004C000800EE66EB1DDE552220EE66E0A0EE66E95
:1004D00007DEE552E552C00EE66EA6DDE552160EC9
:1004E000E66E0A0EE66EFCDDE552E55281A4FED70B
:1004F0003DDF00D012007E6A7F6A926A896A0F0E21
:10050000936EE00E8A6E1F0E946E956A8C6AF19E51
:100510007C809380F19CF292F288D08EF28CF28EE5
:10052000020EE66EA1DDE552010EE66E9DDDE5529E
:10053000280EE66E99DDE5520F0EE66E95DDE5526A
:10054000010EE66E91DDE552E66A6EDDE552E66A81
:10055000A9DDE552010EE66EA5DDE552020EE66E5E
:10056000A1DDE552030EE66E9DDDE552040EE66E5A
:1005700099DDE552050EE66E95DDE552060EE66E56
:1005800091DDE552070EE66E8DDDE552400EE66E1A
:100590006BDDE5520B0EE66E67DDE552010EE66E91
:1005A00081DDE552010EE66E7DDDE552010EE66E5F
:1005B00079DDE552010EE66E75DDE552010EE66E5F
:1005C00071DDE552010EE66E6DDDE552010EE66E5F
:1005D00069DDE552010EE66E65DDE552100EE66E50
:1005E00061DDE552100EE66E5DDDE552100EE66E41
:1005F00059DDE552100EE66E55DDE5521E0EE66E33
:1006000051DDE552120EE66E4DDDE552120EE66E3C
:1006100049DDE552120EE66E45DDE552120EE66E3C
:1006200041DDE552120EE66E3DDDE552120EE66E3C
:1006300039DDE5521E0EE66E35DDE552100EE66E32
:1006400031DDE552100EE66E2DDDE552100EE66E40
:1006500029DDE552100EE66E25DDE552E66A22DD63
:10066000E552E66A1FDDE552E66A1CDDE552E66A00
:1006700019DDE552E66A16DDE552E66A13DDE5525C
:100680001F0EE66E0FDDE5521F0EE66E0BDDE55226
:10069000E66A08DDE552E66A05DDE552E66A02DD56
:1006A000E552E66AFFDCE552E66AFCDCE5521F0E25
:1006B000E66EF8DCE5521F0EE66EF4DCE5521F0E26
:1006C000E66EF0DCE552E66AEDDCE552E66AEADC6D
:1006D000E552E66AE7DCE552E66AE4DCE5521F0E25
:1006E000E66EE0DCE5521F0EE66EDCDCE5521F0E26
:1006F000E66ED8DCE5521F0EE66ED4DCE552E66A03
:10070000D1DCE552E66ACEDCE552E66ACBDCE552A6
:100710001F0EE66EC7DCE5521F0EE66EC3DCE55227
:100720001F0EE66EBFDCE5521F0EE66EBBDCE55227
:100730001F0EE66EB7DCE552E66AB4DCE552E66A07
:10074000B1DCE552E66AAEDCE5521F0EE66EAADCCD
:10075000E5521F0EE66EA6DCE5521F0EE66EA2DC29
:10076000E5521F0EE66E9EDCE5521F0EE66E9ADC29
:10077000E5520C0EE66E78DCE552010EE66E74DC96
:10078000E552010EE66E70DCE552800EE66E4CDC42
:10079000E5520B0EE66E0A0EE66EA2DCE552E5525D
:1007A000C5DD00017851791101E1FBD7785179114C
:1007B00001E1FCD781B47BDE0001010E701901E17B
:1007C00071510CE1010E781901E1795107E1010E37
:1007D000856F866BCBDD0001856B866BE7D71200DA
:1007E000DACFE4FFE2CFDAFFE9CFE4FFEACFE4FFBC
:1007F000F6CFE4FFF7CFE4FFF5CFE4FFF3CFE4FF5C
:10080000F4CFE4FFFACFE4FF00EE00F0100EE804AE
:1008100003E3EECFE4FFFBD700EE12F0020EE80494
:1008200003E3EECFE4FFFBD7E65282CF7CF00F0E5E
:100830000001E76E7C19E8AE02D0E73402D0E75041
:100840007C5D14E27C5112E0010E851901E18651B4
:100850000CE17CC010F0116A10BE116810C0E6FFF8
:1008600011C0E6FFA6DCE552E55251D0120EE76E4C
:100870007C19E8AE02D07C3503D0E750D8807C5597
:100880000EE2130E7C5D7A6F7B6B800B01E07B695F
:10089000010E7F1901E1805101E1EADC38D07C5181
:1008A0000F0A20E01D0A1AE0030A05E0010A01E030
:1008B0002ED03CDD2CD0010EE66E34EC00F0E5527B
:1008C000800EE66E14EC00F0E552000EE66E0A0EA5
:1008D000E66E70EC00F0E552E55219D0010E706F33
:1008E000716B15D0726B736B010EE66E34EC00F019
:1008F000E552800EE66E14EC00F0E552000EE66E56
:100900000A0EE66E70EC00F0E552E55200D00A0ED9
:10091000E66EA7EC05F0E552F292E55200EE13F018
:10092000020EE80403E3E5CFEDFFFBD700EE0FF086
:10093000100EE80403E3E5CFEDFFFBD7E5CFFAFFA8
:10094000E5CFF4FFE5CFF3FFE5CFF5FFE5CFF7FF08
:10095000E5CFF6FFE5CFEAFFE5CFE9FFE5CFDAFF28
:02096000110084
:0E0962000E0EF66E000EF76E000EF86E00011F
:100970000900F5509F6F0900F550A06F03E19F67D4
:1009800001D03DD00900F5509A6F0900F5509B6FDA
:100990000900F5509C6F09000900F550E96E090047
:1009A000F550EA6E090009000900F5509D6F090035
:1009B000F5509E6F09000900F6CFA1F0F7CFA2F025
:1009C000F8CFA3F09AC0F6FF9BC0F7FF9CC0F8FFDA
:1009D00000019D5302E19E5307E00900F550EE6EC1
:1009E0009D07F8E29E07F9D7A1C0F6FFA2C0F7FF66
:1009F000A3C0F8FF00019F07000EA05BBFD7120045
:100A000052656D6F766520637570004C6F61646927
:100A10006E672E2E2E00707265737320436C6561B5
:100A20006E00496E736572742061207461626C653A
:100A3000742C00436C65616E696E672E2E2E004229
:100A4000726577696E672E2E2E00506C6561736536
:100A5000207761697400526573657474696E67000C
:100A6000207300427265772074696D653A200055E5
:070A70007365723A200000DB
:090A7700202020202020205F0334
:100A800004050607FFFF5F0304050607FFFFFFFFDE
:100A9000FFFFFFFFFF0A0014001E00280032003C89
:100AA00000460050004564646965004C756B650044
:100AB00059757672616A005A616E646572004461AC
:100AC0007272656E004F7A00476C796E6E004775E2
:060AD00065737420310083
:0A0AD600006A0EAE74EF05F00D6C1F
:100AE0000E1EE86A0E22001E09AE7CEF05F0086CAF
:100AF000091EE86A0922001E91EC05F009BE8CEF80
:100B000005F000AE000C086C091EE86A0922046CAE
:100B1000051EE86A0522000C00BE83EF05F001887F
:020B2000FF0CC8
:0E0B2200056A046A100EE76ED8900836093690
:100B3000043605360D50045C0E50055805E30D5083
:0E0B4000045E0E50055A082AE72EF0D7120068
:020B4E00FF0E98
:100B5000E350146E480E01D04C0EE76EE72EFED720
:0E0B6000E76AE72EFED7142EF7D7000012002A
:020B6E00000E77
:100B7000F36E00EE00F0060E01D81200EA6002D01B
:0E0B8000EE6AFCD7F350E9601200EE6AFCD773
:020B8E0014EE63
:100B900000F024EE00F0F86A019CB1EC04F003ECE4
:0A0BA00000F07BEC02F0FBD712001E
:060BAA00A50AAB0AB00A27
:100BB000B70ABE0AC50AC80ACE0A00000000000033
:100BC000000000000000000000000096006400012A
:020BD0000076AD
:020000040030CA
:0100010008F6
:0100020001FC
:010003001EDE
:010005008B6F
:010006008178
:010008000FE8
:01000900C036
:01000A000FE6
:01000B00E014
:01000C000FE4
:01000D0040B2
:00000001FF
