:020000040000FA
:060000002DEF05F01200D7
:020006001200E6
:060008008FEF03F012006F
:02000E000100EF
:0C001000760A00006000000018000000EC
:04001C00020EE66E7C
:100020000DEC05F0E5521200D9CFE6FFE1CFD9FF84
:10003000F00E8C16FE0EDB508009E8380F0B0F0B0C
:100040008C12839CEBDF838EE9DF839EF00E8C168F
:10005000FE0EDB500F0B8C12E1DF838EDFDF839E01
:10006000E552E7CFD9FF1200D9CFE6FFE1CFD9FFA4
:10007000F00E8C16FE0EDB380F0B0F0B8C12839CD0
:10008000CDDF838ECBDF839EF00E8C16FE0EDB5011
:100090000F0B8C12C3DF838EC1DF839EE552E7CF47
:1000A000D9FF1200D9CFE6FFE1CFD9FFF00E8C16B1
:1000B000FE0EDB380F0B0F0B8C12838CAFDF838EA1
:1000C000ADDF839EF00E8C16FE0EDB500F0B8C12F4
:1000D000A5DF838EA3DF839EE552E7CFD9FF120011
:1000E000D9CFE6FFE1CFD9FFFD0EDBCFF6FFFE0E45
:1000F000DBCFF7FF0800F55012E090DFFD0EDBCFFD
:10010000F6FFFE0EDBCFF7FF0800F550E66ECADF04
:10011000E552FD0EDB2AFE0E01E3DB2AE5D700D017
:10012000E552E7CFD9FF1200809A050EE66E0DEC7E
:1001300005F0E552808A050EE66E0DEC05F0E552FD
:100140001200D9CFE6FFE1CFD9FF010EE66E8CDFBA
:10015000E552800EE66E68DFE552E66AA3DFE552FF
:10016000FD0EDBCFF6FFFE0EDBCFF7FFB80EF62657
:10017000090EF7220800F550E66E94DFE552FD0EF9
:10018000DBCFF6FFFE0EDBCFF7FFB80EF626090E2B
:10019000F7220800F550E66E85DFE552010EE66EA7
:1001A00081DFE552C00EE66E3FDFE552E66A7ADF98
:1001B000E552FD0EDBCFF6FFFE0EDBCFF7FFC60EDE
:1001C000F626090EF7220800F550E66E6BDFE552C1
:1001D000FD0EDBCFF6FFFE0EDBCFF7FFC60EF626D9
:1001E000090EF7220800F550E66E5CDFE552020EBC
:1001F000E66E58DFE552E552E7CFD9FF1200010E57
:100200000001706F716B6AC0F6FF6BC0F7FFD8908A
:10021000F636F736D40EF626090EF7220900F5CF8A
:1002200064F00A00F5CF65F0010EE66E1DDFE552C1
:10023000800EE66EF9DEE552800EE66E090EE66E81
:100240004FDFE552E552E40E00016A25F66E090E15
:100250006B21F76E0800F550E66EE66A41DFE55265
:10026000E552C00EE66EE0DEE552740EE66E090E53
:10027000E66E36DFE552E55264C0E6FF65C0E6FF94
:100280002FDFE552E552710EE66E090EE66E28DFAD
:10029000E552E55212000001706B716B010EE66EC3
:1002A000E3DEE552800EE66EBFDEE552670EE66ED7
:1002B000090EE66E15DFE552E552809C81B602D04C
:1002C00033DFFCD7010E0001686F696BFFEF00F0B0
:1002D0000001706B716B010E681901E1695157E102
:1002E000010E626F636B686B696B808C6E6B6F6BFA
:1002F000960E6FAF02D0D89003D06E5D000E6F598E
:1003000006E212DF00016E2B000E6F23F1D7010E03
:10031000741901E175511CE18088010EE66EA4DEBE
:10032000E552800EE66E80DEE5525C0EE66E090E4A
:10033000E66ED6DEE552E55264C0E6FFF6EC04F068
:10034000E5528098000EE66EE66AFBDEE552E55265
:1003500000016E6B6F6B6F517319E8AE02D073358D
:1003600004D072516E5D73516F590DE2DDDE0001F4
:100370006251631104E172C06EF073C06FF06E2BB6
:10038000000E6F23E8D77451751101E184DF12006C
:100390000001706B716B010E601901E1615110E198
:1003A00097DF010EE66E60DEE552800EE66E3CDE03
:1003B000E552510EE66E090EE66E92DEE552E5520A
:1003C00012000001706B716B81B4FED7010EE66EF6
:1003D0004BDEE552800EE66E27DEE552400EE66EFD
:1003E000090EE66E7DDEE552E552C00EE66E1CDEBD
:1003F000E552340EE66E090EE66E72DEE552E55207
:1004000081B211D0010EE66E2FDEE552800EE66E4F
:100410000BDEE552290EE66E090EE66E61DEE55250
:10042000E55281A2FED781A4FED768EF01F07E6A73
:100430007F6A926A896A0F0E936EE00E8A6E946AE2
:100440008B6A956A8C6AF19E7C809380F19CF29213
:10045000F288D08EF28CF28E020EE66E05DEE55248
:10046000010EE66E01DEE552280EE66EFDDDE55278
:100470000F0EE66EF9DDE552010EE66EF5DDE55292
:10048000E66AD2DDE552E66A0DDEE552010EE66E61
:1004900009DEE552020EE66E05DEE552030EE66E5B
:1004A00001DEE552040EE66EFDDDE552050EE66E58
:1004B000F9DDE552060EE66EF5DDE552070EE66E55
:1004C000F1DDE552400EE66ECFDDE5520B0EE66E35
:1004D000CBDDE552010EE66EE5DDE552010EE66E7E
:1004E000E1DDE552010EE66EDDDDE552010EE66E60
:1004F000D9DDE552010EE66ED5DDE552010EE66E60
:10050000D1DDE552010EE66ECDDDE552010EE66E5F
:10051000C9DDE552100EE66EC5DDE552100EE66E41
:10052000C1DDE552100EE66EBDDDE552100EE66E41
:10053000B9DDE5521E0EE66EB5DDE552120EE66E31
:10054000B1DDE552120EE66EADDDE552120EE66E3D
:10055000A9DDE552120EE66EA5DDE552120EE66E3D
:10056000A1DDE552120EE66E9DDDE5521E0EE66E31
:1005700099DDE552100EE66E95DDE552100EE66E41
:1005800091DDE552100EE66E8DDDE552100EE66E41
:1005900089DDE552E66A86DDE552E66A83DDE552ED
:1005A000E66A80DDE552E66A7DDDE552E66A7ADDDF
:1005B000E552E66A77DDE5521F0EE66E73DDE55221
:1005C0001F0EE66E6FDDE552E66A6CDDE552E66A07
:1005D00069DDE552E66A66DDE552E66A63DDE5520D
:1005E000E66A60DDE5521F0EE66E5CDDE5521F0E29
:1005F000E66E58DDE5521F0EE66E54DDE552E66A02
:1006000051DDE552E66A4EDDE552E66A4BDDE55224
:10061000E66A48DDE5521F0EE66E44DDE5521F0E28
:10062000E66E40DDE5521F0EE66E3CDDE5521F0E24
:10063000E66E38DDE552E66A35DDE552E66A32DD22
:10064000E552E66A2FDDE5521F0EE66E2BDDE55220
:100650001F0EE66E27DDE5521F0EE66E23DDE55226
:100660001F0EE66E1FDDE5521F0EE66E1BDDE55226
:10067000E66A18DDE552E66A15DDE552E66A12DD46
:10068000E5521F0EE66E0EDDE5521F0EE66E0ADD28
:10069000E5521F0EE66E06DDE5521F0EE66E02DD28
:1006A000E5521F0EE66EFEDCE5520C0EE66EDCDC5B
:1006B000E552010EE66ED8DCE552010EE66ED4DCA2
:1006C000E552800EE66EB0DCE5521E0EE66E090EB7
:1006D000E66E06DDE552E552DEDD00016851691186
:1006E00001E1FBD76851691101E1FCD781B469DEF2
:1006F0000001010E601901E161510FE1010E68195D
:1007000001E169510AE18150020B07E0010E746FAB
:10071000756BDEDD0001746B756BE4D71200DACF08
:10072000E4FFE2CFDAFFE9CFE4FFEACFE4FFF6CF60
:10073000E4FFF7CFE4FFF5CFE4FFF3CFE4FFF4CF1E
:10074000E4FFFACFE4FF00EE00F0020EE80403E35A
:10075000EECFE4FFFBD700EE04F0000EE80403E365
:10076000EECFE4FFFBD7E6520F0E00016DAF02D0D3
:10077000D89003D06C5D000E6D590DE2010E741916
:1007800001E1755107E16CC0E6FF6DC0E6FFD9DC01
:10079000E552E55250D06D3504E26C511208000E5E
:1007A0006D550BE26CC06AF06DC06BF0010E7019F4
:1007B00001E1715101E123DD3ED00F0E6C1901E121
:1007C0006D5126E0120E6C1901E16D511DE0110E04
:1007D0006C1901E16D5108E0100E6C1901E16D51C9
:1007E00001E029D058DD27D0010EE66E3DDCE55250
:1007F000800EE66E19DCE552510EE66E090EE66ECD
:100800006FDCE552E55217D0010E606F616B13D0BB
:10081000626B636B010EE66E27DCE552800EE66EBE
:1008200014EC00F0E552510EE66E090EE66E58DC4F
:10083000E552E55200D0F292E55200EE03F0000ED0
:10084000E80403E3E5CFEDFFFBD700EE01F0020E75
:10085000E80403E3E5CFEDFFFBD7E5CFFAFFE5CFF3
:10086000F4FFE5CFF3FFE5CFF5FFE5CFF7FFE5CFE9
:10087000F6FFE5CFEAFFE5CFE9FFE5CFDAFF1100AC
:100880000E0EF66E000EF76E000EF86E00010900F7
:10089000F5507D6F0900F5507E6F03E17D6701D053
:1008A0003DD00900F550786F0900F550796F0900C7
:1008B000F5507A6F09000900F550E96E0900F5500E
:1008C000EA6E090009000900F5507B6F0900F55038
:1008D0007C6F09000900F6CF7FF0F7CF80F0F8CFEA
:1008E00081F078C0F6FF79C0F7FF7AC0F8FF000109
:1008F0007B5302E17C5307E00900F550EE6E7B0765
:10090000F8E27C07F9D77FC0F6FF80C0F7FF81C00F
:0E091000F8FF00017D07000E7E5BBFD71200CE
:02091E004C6F1C
:100920006164696E672E2E2E00436C6F73652064C0
:100930006F6F7200707265737320436C65616E0037
:10094000496E736572742061207461626C65742CE9
:100950000052656D6F766520637570004272657731
:10096000696E672E2E2E00526573657474696E670A
:1009700000207300427265772074696D653A20002B
:10098000557365723A2000477565737420310047CE
:100990006C796E6E004F7A0044617272656E005A17
:1009A000616E6465720059757672616A004C756B90
:0809B0006500456464696500FF
:0809B800202020202020205FF8
:1009C0000304050607FF5F0304050607FFFFFFFF9B
:1009D000FFFFFFFF0A0014001E00280032003C0049
:0C09E00046005000B2ADA69F98958F878E
:0409EC00FF0EE350C7
:1009F000036EEF0E01D0F30EE76EE72EFDEF04F06D
:100A00000C0E026EE76AE72E03EF05F0022E02EFEE
:0A0A100005F0032EFBEF04F01200C6
:060A1A00FF0EE350036E25
:100A2000480E01D04C0EE76EE72EFED7E76AE72EA0
:0A0A3000FED7032EF7D700001200D6
:060A3A00000EF36E00EE59
:100A400000F0060E01D81200EA6002D0EE6AFCD770
:0A0A5000F350E9601200EE6AFCD7D3
:060A5A0014EE00F024EE92
:100A600000F0F86A019C40EC04F003EC00F017EC95
:060A700002F0FBD71200AA
:0A0A76000000000000000000010075
:0E0A80000000000000000000960000000100D1
:020000040030CA
:0100010008F6
:010003001EDE
:010005000BEF
:010006008178
:00000001FF
