:020000040000FA
:0600000030EF04F01200D5
:0A00060001007E0800006000000009
:0400100012000000DA
:0C001400020EE66E10EC04F0E552120043
:10002000D9CFE6FFE1CFD9FFF00E8C16FE0EDB50E4
:100030008009E8380F0B0F0B8C12839CEBDF838E4B
:10004000E9DF839EF00E8C16FE0EDB500F0B8C1238
:10005000E1DF838EDFDF839EE552E7CFD9FF120019
:10006000D9CFE6FFE1CFD9FFF00E8C16FE0EDB38BC
:100070000F0B0F0B8C12839CCDDF838ECBDF839E07
:10008000F00E8C16FE0EDB500F0B8C12C3DF838E2E
:10009000C1DF839EE552E7CFD9FF1200D9CFE6FF3B
:1000A000E1CFD9FFF00E8C16FE0EDB380F0B0F0BD5
:1000B0008C12838CAFDF838EADDF839EF00E8C16A7
:1000C000FE0EDB500F0B8C12A5DF838EA3DF839E09
:1000D000E552E7CFD9FF1200D9CFE6FFE1CFD9FF34
:1000E000FD0EDBCFF6FFFE0EDBCFF7FF0800F5506D
:1000F00012E090DFFD0EDBCFF6FFFE0EDBCFF7FF49
:100100000800F550E66ECADFE552FD0EDB2AFE0E52
:1001100001E3DB2AE5D700D0E552E7CFD9FF120093
:10012000120012001200D9CFE6FFE1CFD9FFE5524D
:10013000E7CFD9FF1200010E0001706F716B6AC02A
:10014000F6FF6BC0F7FFD890F636F736DA0EF626D4
:10015000070EF7220900F5CF64F00A00F5CF65F02D
:10016000010EE66E7DDFE552800EE66E59DFE55248
:10017000E80EE66E060EE66EAFDFE552E552EA0ED9
:1001800000016A25F66E070E6B21F76E0800F55028
:10019000E66EE66AA1DFE552E552C00EE66E40DF8C
:1001A000E552DC0EE66E060EE66E96DFE552E5528F
:1001B00064C0E6FF65C0E6FF8FDFE552E552D90E69
:1001C000E66E060EE66E88DFE552E552120000018B
:1001D000706B716B010EE66E43DFE552800EE66ECA
:1001E0001FDFE552CF0EE66E060EE66E75DFE552B6
:1001F000E55297DF0A0E000167AF02D0D89003D016
:10020000665D000E675901E2F5D78CDF010E000133
:10021000686F696B9BEF00F00001706B716B010EF2
:10022000681901E1695146E1010E626F636B686B09
:10023000696B76DF320EE66EF9EC03F0E55272DFA1
:100240008180010EE66E0CDFE552800EE66EE8DE80
:10025000E552C40EE66E060EE66E3EDFE552E5524E
:1002600064C0E6FFF9EC03F0E5528190000EE66E03
:10027000E66A59DFE552E55253DF00016E6B6F6BA2
:10028000D8906F5104E6E80E6E5D030E6F5911E2CF
:100290006251631109E1E80E6E6F030E6F6F0A0E73
:1002A000E66EF9EC03F0E55200016E2B000E6F23B1
:1002B000E7D738DF12000001706B716B010E601917
:1002C00001E1615110E1A8DF010EE66EC9DEE552E1
:1002D000800EE66EA5DEE552B20EE66E060EE66E06
:1002E000FBDEE552E55212000001706B716B81A4D8
:1002F000FED77C0EE66E060EE66EEEDEE552E552A9
:1003000081A4FED781A2FED70CEF01F00F0E0001F1
:100310006DAF02D0D89003D06C5D000E6D5908E22D
:100320006CC0E6FF6DC0E6FFFEDEE552E55251D03F
:100330006D3504E26C511208000E6D550BE26CC075
:100340006AF06DC06BF0010E701901E1715101E1AD
:10035000F2DE3FD00F0E6C1901E16D5126E0120E56
:100360006C1901E16D511DE0110E6C1901E16D5127
:1003700008E0100E6C1901E16D5101E02AD027DF71
:1003800028D0010EE66E6CDEE552800EE66E48DE89
:10039000E552B20EE66E060EE66E9EDEE552E552C0
:1003A00018D0010E606F616B14D0BCDE0001626B6F
:1003B000636B010EE66E54DEE552800EE66E30DEB3
:1003C000E552660EE66E060EE66E86DEE552E552F4
:1003D00000D012007E6A7F6A926A896A936AE00E90
:1003E0008A6E946A8B6A956A8C6A020EE66E38DEB3
:1003F000E552010EE66E34DEE552280EE66E30DE82
:10040000E5520F0EE66E2CDEE552060EE66E28DE95
:10041000E552020EE66E24DEE552010EE66E20DEA7
:10042000E552280EE66E1CDEE5520F0EE66E18DE73
:10043000E552010EE66E14DEE552E66AF1DDE552A4
:10044000E66A2CDEE552010EE66E28DEE552020E6B
:10045000E66E24DEE552030EE66E20DEE552040E63
:10046000E66E1CDEE552050EE66E18DEE552060E5F
:10047000E66E14DEE552070EE66E10DEE552400E23
:10048000E66EEEDDE5520B0EE66EEADDE552E66A5B
:1004900005DEE552E66A02DEE552E66AFFDDE55278
:1004A000E66AFCDDE552E66AF9DDE552E66AF6DD6C
:1004B000E552E66AF3DDE5521F0EE66EEFDDE5522A
:1004C000E66AECDDE552E66AE9DDE552E66AE6DD7C
:1004D000E552E66AE3DDE552E66AE0DDE552E66A0A
:1004E000DDDDE5521F0EE66ED9DDE552E66AD6DDAA
:1004F000E552E66AD3DDE552E66AD0DDE552E66A0A
:10050000CDDDE552E66ACADDE552E66AC7DDE552B1
:100510001F0EE66EC3DDE552E66AC0DDE552E66A0F
:10052000BDDDE552E66ABADDE552E66AB7DDE552C1
:10053000E66AB4DDE552E66AB1DDE5521F0EE66E0D
:10054000ADDDE552E66AAADDE552E66AA7DDE552D1
:10055000E66AA4DDE552E66AA1DDE552E66A9EDDC3
:10056000E552E66A9BDDE5521F0EE66E97DDE55229
:10057000E66A94DDE552E66A91DDE552E66A8EDDD3
:10058000E552E66A8BDDE552E66A88DDE552E66A09
:1005900085DDE5521F0EE66E81DDE552E66A7EDD01
:1005A000E552E66A7BDDE552E66A78DDE552E66A09
:1005B00075DDE552E66A72DDE552E66A6FDDE55209
:1005C0001F0EE66E6BDDE552E66A68DDE552E66A0F
:1005D00065DDE552E66A62DDE552E66A5FDDE55219
:1005E000E66A5CDDE552E66A59DDE5521F0EE66E0D
:1005F00055DDE552E66A52DDE552E66A4FDDE55229
:10060000E66A4CDDE552E66A49DDE552E66A46DD1A
:10061000E552E66A43DDE552E66A40DDE5520C0E3E
:10062000E66E1EDDE552010EE66E1ADDE552010EA4
:10063000E66E16DDE552800EE66EF2DCE5525E0EE9
:10064000E66E060EE66E48DDE552E5520001686B87
:0E065000696B6851691101E0F9D7FFD71200FC
:02065E005354F3
:10066000415254555000506C656173652072656D40
:100670006F7665207468652063757000496E7365D8
:1006800072742061207461626C65742C20636C6FDD
:1006900073652074686520646F6F7220616E6420DA
:1006A000707265737320436C65616E206167616968
:1006B0006E00506C656173652072656D6F766520A4
:1006C0006375700042726577696E672E2E2E005238
:1006D0006573657474696E67002073004272657794
:1006E0002074696D653A2000557365723A200047A1
:1006F00075657374203100476C796E6E004F7A0017
:1007000044617272656E005A616E6465720059755B
:100710007672616A004C756B6500456464696500BA
:10072000060EF66E000EF76E000EF86E0001090060
:10073000F550776F0900F550786F03E1776701D0C6
:100740003DD00900F550726F0900F550736F090034
:10075000F550746F09000900F550E96E0900F55075
:10076000EA6E090009000900F550756F0900F5509F
:10077000766F09000900F6CF79F0F7CF7AF0F8CF5D
:100780007BF072C0F6FF73C0F7FF74C0F8FF000182
:10079000755302E1765307E00900F550EE6E7507D8
:1007A000F8E27607F9D779C0F6FF7AC0F7FF7BC089
:0E07B000F8FF00017707000E785BBFD712003C
:0207BE002020F9
:1007C00020202020205F0304050607FF5F030405A7
:1007D0000607FFFFFFFFFFFFFFFF0A0014001E00D8
:1007E000280032003C00460050001A150E0700FD9C
:0207F000F7EF21
:0E07F200FF0EE350036EEF0E01D0F30EE76E24
:10080000E72E00EF04F00C0E026EE76AE72E06EF0B
:1008100004F0022E05EF04F0032EFEEF03F01200A9
:10082000FF0EE350036E480E01D04C0EE76EE72E2C
:10083000FED7E76AE72EFED7032EF7D70000120097
:10084000000EF36E00EE00F0060E01D81200EA6012
:1008500002D0EE6AFCD7F350E9601200EE6AFCD7D2
:1008600015EE00F025EE00F0F86A019C90EC03F024
:0C0870003EEC04F0EAEC01F0FBD71200B3
:02087C00120068
:02087E00000078
:100880000000000000000000000000000000000068
:020000040030CA
:0100010008F6
:010003001EDE
:010005000BEF
:010006008178
:00000001FF
